:0A0000000C945F000C9400000C94B7
:10000A0000000C9400000C9400000C9400000C9466
:10001A0000000C9400000C9400000C9400000C9456
:10002A0000000C9400000C9400000C9400000C9446
:10003A0000000C9400000C9400000C9400000C9436
:10004A0000000C9400000C9400001027E8036400E0
:10005A000A000100001000011000010000003738FA
:10006A00392F3435362A3132332D63303D2BFEFD9C
:10007A00FBF74552524F52002564002000256420A8
:10008A002A20002564202A202564002564202A20AD
:10009A002564203D2025640080C002000A00660015
:1000AA001000600268000400700278000200A002DA
:1000BA00A2000000F894EE27ECBBF1E0FBBFEBBF17
:1000CA00E5BF8DE0A2E0BB27ED938A95E9F780E0D2
:1000DA0098E0A0E6ED930197E9F7E4EAF0E085916C
:1000EA009591009761F0A591B59105901590BF0182
:1000FA00F00105900D920197E1F7FB01F0CFEFE5D2
:10010A00EDBFE8E0EEBFC0E6D2E00C941001442453
:10011A005524E3E0F0E0E415F505C4F1A0E7B2E008
:10012A00A40DB51DEC91E5BBE5E0F0E03F019C991B
:10013A0002C0662477249D9903C0E1E0F0E03F0104
:10014A009E9903C0E2E0F0E03F019F9903C0E3E01B
:10015A00F0E03F01E5E0F0E0E615F70599F09C9B39
:10016A00FECF9D9BFECF9E9BFECF9F9BFECFF201B3
:10017A00A0E6B2E00E942A05EA0FFB1FE60DF71D72
:10018A00E0810895F20131962F01C3CFC0CFAA931F
:10019A00A881A93321F4E9E0F0E00C948802A8814F
:1001AA00A83321F4E8E0F0E00C948802A881A73390
:1001BA0021F4E7E0F0E00C948802A881A63321F448
:1001CA00E6E0F0E00C948802A881A53321F4E5E08A
:1001DA00F0E00C948802A881A43321F4E4E0F0E072
:1001EA000C948802A881A33319F4E3E0F0E08BC1F0
:1001FA00A881A23319F4E2E0F0E085C1A881A13315
:10020A0019F4E1E0F0E07FC1A881A03319F4E0E03D
:10021A00F0E079C178C1EFE0EABBEFEFEBBBE0E0D9
:10022A00E7BBE8BBE4BBE5BBE1BBE2BBE3BFE2BFC4
:10023A00ECBFEFBDEEBDEDBDECBDE7BDE6BDEBBD70
:10024A00EABDE9BDE8BDE2BDE5BDE4BDE3BDE9BF88
:10025A00E5BFE4BFEAB9E0E8E8B9E0E0E0BFE6B943
:10026A00EDB9E6BFA0E123D1F0D0EFE0E4BB0E94F4
:10027A004B04EAE2E915C1F14ADF9E2EEAE2E915EA
:10028A0029F40E9451040E94790509F006C00E94CF
:10029A005A040E945F040E946804E9E3E91518F011
:1002AA00E0E39E1608F417C0A92D71DF5F010E94D2
:1002BA006E040E947704E0937402F09375026093CF
:1002CA00760270937702AA24BB240E945A04E2E8B9
:1002DA00F0E00E948504E3E6E91529F40E948F0400
:1002EA000E94A10401C0C5CFE3E6E91531F00E94DE
:1002FA005A04E7E8F0E00E948504EDE3E91509F401
:10030A0075C0E3E6E91529F40E948F040E94A1044E
:10031A006DC0FDDE9E2EEDE3E91519F40E94AA04D4
:10032A0009F009C00E945A040E945F040E946804EE
:10033A000E94B5045BC0E9E3E91518F0E0E39E16F4
:10034A0008F41DC0A92D23DF5F010E94BF040E948B
:10035A007704E0937802F093790260937A027093BB
:10036A007B02AA24BB240E945A04EDE8F0E00E9412
:10037A00C80488E00E94FE032C960E944B04EDE319
:10038A00E91519F40E94AA0409F42FC00E94BF04B7
:10039A000E9451040E945405E0937C02F0937D026E
:1003AA0060937E0270937F020E945A04E5E9F0E0AE
:1003BA000E94C804E0917C02F0917D0260917E0265
:1003CA0070917F020E9474058CE00E94FE03609681
:1003DA000E944B040E94B504E0E0E0937802E093A7
:1003EA007902E0937A02E0937B0287CF42CFFFCF74
:1003FA00AA93EBB3EF70AE2FE881E07FEA2BEBBB59
:10040A008DE08A95F1F7DA9A8DE08A95F1F7DA9814
:10041A008DE08A95F1F777C0AA93A881E9DFE88190
:10042A00E295E883A881E4DF85E88A95F1F76BC055
:10043A00AA93E881F0E0E056FD4FE081A981AE0F72
:10044A00EBDF8980D88022960895A2E00E94D10429
:10045A00ACE0E2DFA1E00E94D104E0E0DE2E8E2EC5
:10046A000895AA93A881AA3011F08C1448F0E0E00C
:10047A00EA93D394AD2DDCDFA881AA3009F443C0F6
:10048A008394D89AA881C8DFD8983DC0BA93AA9312
:10049A001A93A981BA81ED91A983BA831E2FE030FC
:1004AA0019F0A12FDEDFF5CF188123960895AA93BC
:1004BA00EAB3E06FEABBD29AD09AD19ADA98D8987E
:1004CA00D998C880E881E058E093A202E881E05414
:1004DA00E093A302A4E1B0E00E940B050E94D704B6
:1004EA000E94D7040E94D704A0E282DF88EC90E041
:1004FA000197F1F7A8E290DFA4E08EDFA5E88CDF90
:10050A00A6E08ADFA2DF21960895BA93AA931A93E6
:10051A000A93AA81BB8112960E946C05309759F101
:10052A00AA81BB8114960E946C058F01309761F0F5
:10053A000230E0E01E0798F0F80131978F01AA8196
:10054A00BB811496ED93FC93AA81BB811296ED911F
:10055A00FD913196FE93EE933197AC81A083AA81E7
:10056A00BB810E946C05FF232AF0ED91FD91319623
:10057A00FE93EE9306C0AA81BB81EFEFFFEFED93E6
:10058A00FC931981088125960895BA93AA93269710
:10059A000E947F0510E0AC85BD85E0E0F0E0ED93B8
:1005AA00FC93EA89FB893196EA8BFB8B3197E491BC
:1005BA002E2FE03009F415C1E12FE03039F425324D
:1005CA0011F411E002C00E94DF040AC1E130A9F46B
:1005DA00253219F40E94DF0402C112E040E000E073
:1005EA002D3211F401E0FCC02B3211F44BE2F8C0B9
:1005FA00203211F440E2F4C002C0E23039F450E093
:10060A0013E0203311F40068EBC003C0E33009F0B3
:10061A00E7C0203310F02A3308F007C0AAE05A9F37
:10062A00502DE22FE0535E0FDBC0E22FE33649F490
:10063A000E94E604E889F989A481AA930E94EC043D
:10064A00CEC0E33741F40E94E6040E94F2040E94FD
:10065A0032041E2F0AC0E03761F40E94E6040E94A9
:10066A00F2040E943E041E2F086002600F7730E0F9
:10067A0034C0E43611F0E93611F4046002C0E537FB
:10068A0031F4E4E5F0E0EE83FF8315E00CC0E835D1
:10069A0011F4086003C0E83709F0A1C0EEE5F0E004
:1006AA00EE83FF8314E002FF14C00E94E6040E9456
:1006BA00FC04AB85AA233AF4EA85FB850E941E0551
:1006CA00EA87FB874DE2403011F01F5F01C00B7FC4
:1006DA0004C00E94E6040E94FC0400FD11C0151724
:1006EA0078F407FF08C002FF04C00B7F242F1150C3
:1006FA0001C020E301C020E20E94DF045150EFCF85
:10070A00312F01FF17C03030A1F003FF06C0EE8180
:10071A00FF812591EE83FF8305C0AE81BF812D91B4
:10072A00AE83BF830E94DF04503009F0515031502C
:10073A00EACF4BC020E3EE81FF810E947005E88773
:10074A00F987EE81FF813296EE83FF83E885F9858A
:10075A00AA85BB85AE17BF0750F02F5FA885B9855C
:10076A00EA85FB85EA1BFB0BEA87FB87EFCF2A3377
:10077A0028F003FF02C0295F01C0295D04FD1AC0E9
:10078A00213320F4A885B985119709F409C05317B4
:10079A0010F000FF01C013C020E207FF0BC020E3E6
:1007AA00006102FF07C00B7F4A930E94EC0450309D
:1007BA0009F051500E94DF04503009F05150315075
:1007CA00A885B985129708F0B5CF00FF08C0503048
:1007DA0031F05150E0E2EA930E94EC04F8CF10E0C5
:1007EA00E0CEAC85BD850E946C050E9486056496A4
:1007FA000895FF92F82E26970E9481050E9404050B
:10080A00309719F4EFEFFFEF23C0DE0116960E942E
:10081A0015058D010E940405EE83FF83E0E0E88759
:10082A00E987DE011A960E9415050E946C05FA9363
:10083A00EA931A930A93EAE8F2E0FA93EA93DE015A
:10084A001A96A3DE9F01AE81BF81E0E0EC93F90125
:10085A000E9488052A96FF900895BA93AA93A991AF
:10086A00B991EE27FF276D91662311F03196FBCFE0
:10087A000895BA93AA93AA27BB27E991F9910590FB
:10088A00002011F01196FBCFFD0108950E942A0263
:10089A00A0E8B2E00C944B02A0917402B0917502E8
:1008AA0080917602909177020895E0E8F2E0FA9357
:1008BA00EA930895ECE7F0E0FA93EA9380E00E9465
:1008CA00FE032496E3CFA0EDB7E00E940B050C943B
:1008DA002A02E0917402F091750260917602709199
:1008EA0077020895AAE0B0E080E090E00E94540503
:1008FA00DF01CB01F5010E942F050E941905089519
:10090A00FA93EA93E6DF0E94740584E00E94FE03EC
:10091A002896BCCFE0E0E0937402E0937502E0937E
:10092A007602E0937702E0937802E0937902E0930B
:10093A007A02E0937B02B9CFE5E8F0E0FA93EA9312
:10094A0080E00E94FE032496A1CFA0917802B09184
:10095A00790280917A0290917B020E94790508952A
:10096A00E0E0E0937402E0937502E0937602E0938C
:10097A0077020895E0917802F091790260917A0203
:10098A0070917B020895FA93EA93A3DF0E9474059B
:10099A00F1DF0E94740508950E941102A3E0B0E0FD
:1009AA000C940B05A0E30E94FD0188EC90E00197EE
:1009BA00F1F708952A93AD85BE85EF85F8890995E3
:1009CA000895E889F9893497E88BF98B0895AD85FC
:1009DA00BE85EF85F88909950895A889B98914967D
:1009EA000E946C05EE83FF83AE81BF810895A889BA
:1009FA00B98914960E946C05EA87FB870895DE017F
:100A0A001C960E9415050E946C050895109639F0EF
:100A1A0080ED97E00197F1F7A8951197C9F7089526
:100A2A000024AF0DB01D0895EA0FFB1F681F791F40
:100A3A000895F195E195F0400895F09560957095C7
:100A4A00E195FF4F6F4F7F4F0895EE0FFF1FEE0F97
:100A5A00FF1F08956F2F660F660B762F08957A9FF2
:100A6A00702D6B9F700DF89F700DE99F700D6A9F36
:100A7A00602D710DFB9F600D711DE89F600D711D4A
:100A8A008827FA9FF02D610D781FEB9FF00D611DED
:100A9A00781FEA9FE02DF10D681F781F089504D092
:100AAA00DEDF0EF4CADF0895E89477FF02C0C5DFDF
:100ABA00689497FF0BC00024A095B09580959095F7
:100ACA001196801D901D00F8039400FA0895ED9187
:100ADA00FC91119708950590F491E02D08957A9369
:100AEA006A93FA93EA93089500240A160B060806F5
:100AFA00090608955A934A933A932A931A930A93A2
:100B0A0008955D814C813B812A811981088108956C
:00000001FF
